:100835004C504720474153204445544543544F525B
:1008450000202020202020202020202020202020C3
:10085500004C5047204445544543544544202121EC
:010865000092
:1008000012088B7BFF7A08793512086630A3137FB4
:10081000C01208CC7BFF7A0879461208661208BD20
:1008200080EA7FC01208CC7BFF7A087956120866EE
:050830001208BD80D795
:10088B007F381208CC7F0E1208CC7F061208CC7F63
:09089B00011208CC7F800208CC98
:0E08CC008F90C2A0C2A1D2A21208BDC2A22269
:0E08DA008F90D2A0C2A1D2A21208BDC2A2224B
:100866008B088A09890AAB08AA09A90A1208A46092
:1008760013050AE50A7002050914F91208A4FF1205
:0508860008DA80E22207
:0E08BD00E4FFFE0FBF00010EBE4EF8BF20F597
:0108CB00220A
:030000000208E80B
:0C08E800787FE4F6D8FD75810A02080054
:1008A400BB010689828A83E0225002E722BBFE0252
:0908B400E32289828A83E4932285
:00000001FF
